:040000006F10C02598
:100004000000000000000000940000209400002084
:10001400A9BDF9F3940000200000000000000000D6
:100024009400002094000020000000000000000064
:100034009400002000000000940000200000000054
:1000440094000020940000209400002094000020DC
:100054009400002094000020341400009400002038
:1000640094000020940000209400002094000020BC
:1000740094000020940000209400002094000020AC
:10008400940000209400002094000020940000209C
:1000940001A00000130101FF232611002324810085
:1000A40013040101B71700409387470C83C7270047
:1000B40093F7F70F93F7070493B7170093F7F70F26
:1000C400638A0700B7070020375700001307A75AB1
:1000D4002390E700B707002003D70700B7570000B5
:1000E4009387A75A6306F700B7370000E780070035
:1000F40013850183972000E0E78000E7B78700407D
:10010400238007001300000013000000B71700202D
:1001140013874729B78700409387070113170701FF
:10012400135707012390E7001387418FB7870040D7
:100134009387470113170701135707012390E7001B
:1001440013874193B78700409387870113170701EB
:10015400135707012390E70013874197B78700409F
:100164009387C70113170701135707012390E7006B
:10017400B78700409387270203C70700137737FF29
:100184002380E700B78700409387270203C707004F
:100194001377C7FF136727002380E700B787004062
:1001A4009387370023800700B787004093871700A1
:1001B40003C70700136707F82380E700B7870040E9
:1001C40083C7070013F7F70FB78700401367970239
:1001D4001377F70F2380E700B78700409387170052
:1001E40003C70700136717002380E700B717004011
:1001F4009387A70103D70700136707082390E70035
:10020400B71700409387A70103D7070013670704B4
:100214002390E700B7870040938767001307F0FF38
:100224002380E700B78700409387270013077000F7
:100234002380E70013066000B72700009385C723D7
:1002440013850183972000E0E78080ED13056001AA
:10025400971000E0E780C00E130000008320C10067
:10026400032481001301010167800000130101FFD1
:100274002326110023248100130401011305100017
:10028400EF00903583A741821387170023A2E182F0
:1002940003A74182B7975B00938707D863F0E7060B
:1002A400B71700409387070AA3800700B7170040D9
:1002B4009387070BA3800700B73700409387074055
:1002C40023A00700B787004023A00700B71700400A
:1002D4009387A70103D707001377F7FB2390E70061
:1002E400B70700202390070013056001971000E072
:1002F400E780C009B7370000E7800700130000005B
:100304008320C100032481001301010167800000E0
:10031400130101FF2326810013040101B787004064
:100324009387C70003C707001377F703136707040E
:100334002380E700B78700409387C70003C70700FF
:10034400137737FF136747002380E700B787004020
:100354009387D70003C70700137737FF1367870016
:100364002380E700B78700409387D70003C70700BF
:100374001377F703136707042380E700B787004068
:10038400938767021307A0012380E700B787004023
:100394009387A702130720012380E700B787004053
:1003A4009387E7021307A0012380E700B787004083
:1003B400938727031307A0012380E700130000009D
:1003C4000324C1001301010167800000130101FC33
:1003D400232E1102232C8102130401049307050028
:1003E400A307F4FCA30704FE938741972324F4FE98
:1003F400230704FE83C78182938707F813075000FD
:10040400636EF75413972700B72700009387C73A02
:10041400B307F70083A707006780070083A7C1829B
:1004240083C737001397870183A7C18283C7270037
:10043400939707013367F70083A7C18283C7170027
:1004440093978700B367F70003A7C18203470700A8
:10045400B3E7E7002322F4FE832744FE93F707F073
:100464002322F4FE83A7C18283C777009397870171
:100474001387070083A7C18283C767009397070187
:100484003367F70083A7C18283C757009397870018
:10049400B367F70003A7C18203474700B3E7E70048
:1004A400232EF4FC8327C4FD9387F70F93F707F0FB
:1004B400232EF4FC0327C4FD832744FEB307F7402F
:1004C4009386070013060000832544FE13051000DD
:1004D400EF00D02193070500A307F4FE832784FED1
:1004E4000347F4FE2380E700B78700409387C702E1
:1004F400130710002380E7006F00404883A7C182E0
:1005040083C737001397870183A7C18283C7270056
:10051400939707013367F70083A7C18283C7170046
:1005240093978700B367F70003A7C18203470700C7
:10053400B3E7E7002322F4FE83A7C18283C77700D1
:10054400939787011387070083A7C18283C7670036
:10055400939707013367F70083A7C18283C75700C6
:1005640093978700B367F70003A7C1820347470047
:10057400B3E7E7002320F4FE032744FE23A0E1822F
:10058400032704FE9307F0FF630AF700832704FEA2
:100594001397070113570701239EE180832784FEE5
:1005A40023800700B78700409387C7021307100012
:1005B4002380E7006F00803C9387818283C7170004
:1005C400639C070683D7C1819397070193D70701DB
:1005D400B337F00093F7F70F6384071483D7C1810F
:1005E4009397070193D707019387370093970701E0
:1005F40093D7070193F7C7FF139707011357070111
:10060400239EE18003A7018283D7C18193970701C9
:1006140093D70701938607001386419B9305070030
:1006240013052000EF00900C93070500A307F4FEC8
:10063400239E01806F00C00E83D7C1819397070169
:1006440093D70701138707009387419B3307F7006C
:1006540083A7C182938607009387818283C717008B
:10066400138607009385060013050700EF00003684
:100674009387818283C717001397070113570701D4
:1006840083D7C1819397070193D70701B307F70075
:100694001397070113570701239EE18083D7C18174
:1006A4009397070193D7070193B7071093C71700D0
:1006B40093F7F70F6386070603A7018293060010DA
:1006C4001386419B9305070013052000EF001002D9
:1006D40093070500A307F4FE83A70182138707107D
:1006E40023A0E18283D7C1819397070193D70701A0
:1006F400938707F01397070113570701239EE1809F
:10070400138741AB83D7C1819397070193D707011F
:1007140013860700930507001385419BEF00002B08
:10072400832784FE0347F4FE2380E700B787004055
:100734009387C702130710002380E7006F0000248B
:100744009387818283C717002307F4FE83A7C1829E
:1007540083C737001397870183A7C18283C7270004
:10076400939707013367F70083A7C18283C71700F4
:1007740093978700B367F70003A7C1820347070075
:10078400B3E7E7002322F4FE032784FE832644FE16
:100794009387818283C71700138607009385060019
:1007A40013050700EF008022B78700409387C70234
:1007B4000347E4FE2380E7006F00401C8347F4FCFA
:1007C4009387C7FF2307F4FE83A7C182938747005B
:1007D4000347E4FE13060700938507001385419B36
:1007E400EF00C01E83A7C18283C737001397870118
:1007F40083A7C18283C72700939707013367F70054
:1008040083A7C18283C7170093978700B367F70054
:1008140003A7C18203470700B3E7E7002322F4FEDE
:10082400832784FE93872700032744FE8346E4FE40
:10083400138606009305070013850700EF000019CF
:100844008347E4FE93F73700638C07048347E4FE91
:100854009387370093F7F70F93F7C7FF2307F4FE47
:100864008347F4FC1387C7FF9387419BB306F700C4
:100874000347F4FC832744FEB307F7009387C7FFBD
:10088400938507000347E4FE8347F4FC9387C7FF7F
:10089400B307F7401386070013850600EF00001323
:1008A4008347E4FE938607001386419B832544FE19
:1008B40013053000EF00806393070500A307F4FEDF
:1008C400832784FE0347F4FE2380E7008347F4FC78
:1008D4009387C7FF13F7F70F832784FEA380E700EE
:1008E400B78700409387C7020347F4FC1307E7FF69
:1008F4001377F70F2380E7006F004008B717004015
:100904009387070AA3800700B71700409387070B54
:10091400A3800700B73700409387074023A0070050
:10092400B787004023A00700B71700409387A701AB
:1009340003D707001377F7FB2390E700B7070020DE
:100944002390070013056001971000E0E78040A999
:10095400B7370000E78007006F004002832784FE5A
:100964001307E0FF2380E700B78700409387C7029F
:10097400130710002380E70013000000B78700402E
:100984009387C70283C7070093F7F70F938707FC82
:1009940093B7170093F7F70F638607001307100048
:1009A400A388E182B78700409387E70203C7070063
:1009B4001377C7FF2380E700130000008320C103DF
:1009C400032481031301010467800000130101FD66
:1009D4002326810213040103232EA4FC232CB4FC3C
:1009E400232AC4FC8327C4FD2326F4FE832784FD25
:1009F4002324F4FE0327C4FE832784FEB367F70091
:100A040093F73700638E0702832744FD638A070246
:100A1400032784FE930717002324F4FE8327C4FED0
:100A2400938617002326D4FE034707002380E7009C
:100A3400832744FD9387F7FF232AF4FC6FF09FFB81
:100A44008327C4FE2322F4FE832784FE2320F4FE9E
:100A5400032744FD9307300063FAE702032704FEEB
:100A6400930747002320F4FE832744FE9386470020
:100A74002322D4FE0327070023A0E700832744FD95
:100A84009387C7FF232AF4FC6FF09FFC832744FE5F
:100A94002326F4FE832704FE2324F4FE832744FD47
:100AA4001387F7FF232AE4FCB337F00093F7F70F1B
:100AB40063840702032784FE930717002324F4FEAC
:100AC4008327C4FE938617002326D4FE034707001A
:100AD4002380E7006FF09FFC130000000324C10291
:100AE4001301010367800000130101FE232E81001E
:100AF40013040102B7170040938707041307700516
:100B04002380E700B717004093870704130780FA90
:100B14002380E7001300000013000000130000000E
:100B2400B71700409387B70483C7070013F7F70F7D
:100B3400B71700409387B7041377F7FD1377F70FC0
:100B44002380E700B717004093870704238007003A
:100B540013000000B71700409387A70083C707005E
:100B640093F7F70F93D7470093F7170093F7F70F0F
:100B740093C7170093F7F70F63860706B71700406C
:100B840093870704130770052380E700B717004015
:100B940093870704130780FA2380E70013000000FB
:100BA4001300000013000000B71700409387A7004C
:100BB40003C70700136707012380E700232604FE09
:100BC4000327C4FE9307F07C63EEE70013000000E4
:100BD400130000008327C4FE938717002326F4FE26
:100BE4006FF01FFEB71700409387070413077005C3
:100BF4002380E700B717004093870704130780FAA0
:100C04002380E7001300000013000000130000001D
:100C1400B717004093878700130780042380E700F9
:100C24001300000013000000130000001300000074
:100C3400B7170040938707042380070013000000C0
:100C4400B717004093870704130770052380E70054
:100C5400B717004093870704130780FA2380E7003F
:100C6400130000001300000013000000B727004029
:100C74009387478013072005A381E700B717004037
:100C8400938707042380070013000000B717004070
:100C940093870704130770052380E700B717004004
:100CA40093870704130780FA2380E70013000000EA
:100CB4001300000013000000B71700409387B70427
:100CC40083C7070013F7F70FB71700409387B704DC
:100CD400136707F81377F70F2380E700B71700406F
:100CE400938707042380070013000000130000000B
:100CF4000324C1011301010267800000130101FFF5
:100D0400232611002324810013040101B717004096
:100D14009387470D83C7270013F7F70FB7170040D2
:100D24009387470D1377F7FB1377F70F2381E700BA
:100D3400B71700409387070D83C7270013F7F70FF2
:100D4400B71700409387070D136707041377F70F4E
:100D54002381E700B71700409387070C83C7270058
:100D640013F7F70FB71700409387070C1377F7FBB8
:100D74001377F70F2381E700EFF01FD7EFF08FB160
:100D8400EFF0CFCE6FF0DFFF130101FD2326110238
:100D94002324810213040103232EA4FC232604FE2E
:100DA4008327C4FE0327C4FD63FEE7001305803ECA
:100DB400EF0080028327C4FE938717002326F4FEE6
:100DC4006FF01FFE130000008320C1020324810280
:100DD4001301010367800000130101FD2326810232
:100DE40013040103232EA4FC0327C4FD9307070067
:100DF40093974700B387E7402326F4FE13000000CF
:100E04008327C4FE9387F7FF2326F4FE8327C4FEBB
:100E1400B337F00093F7F70F638407006FF01FFEFA
:100E2400130000000324C1021301010367800000C2
:100E34002303048015472303E48001002302A480D4
:100E4400828083076480E3CE07FE230304808280CC
:100E540083076480E3CE07FE0345448082808307D2
:100E64006480E3CE07FE2302A4808280411126C45D
:100E74004AC24EC006C61377F50BAD47AA892E8920
:100E840095446306F70019456537653F8D444E85E3
:100E94004537FD59FD1463983401B240A244124908
:100EA400824941018280135509011375F50F453FAD
:100EB4002209CDB7011126CC06CEB704080051375C
:100EC4001545BD37713769372AC6A53F3245937733
:100ED400150089EB136515001375F50FF240E24414
:100EE40005618280FD14E9FC0145CDBF397126DC22
:100EF4004ADA4ED852D656D45AD25ED006DE62CEE4
:100F040066CCB7E700E07D5783AA070022C603AA90
:100F1400470023A0E71823A2E718B71700401307D8
:100F240070052380E704130780FA2380E70483C74E
:100F34004704930B75FFB684E20793FBFB0F8546CA
:100F4400AA892E8B328937240040E187015763FA3E
:100F540076016308D5008946130700026313D500A0
:100F64000157D98F93F7F70FB71C00402382FC0475
:100F740011472303E4801305F00F5D3D094CD1357F
:100F8400636D7C11B7050700DA953787070079553B
:100F940063F2E504B3879500636EF702370B08002C
:100FA400A94733EB65016399F90689E48144513D0E
:100FB40026850DA0DA850945553D05090345F9FF48
:100FC400FD14050B693D81C49377FB0FFDF7DD35F7
:100FD40069FD7D55B7170040130770052380E704AA
:100FE400130780FA2380E70403C74704418B238255
:100FF400E704F250B7E700E023A0571123A24711FA
:10100400E25432445259C259325AA25A125B825B98
:10101400724CE24C21618280A5476395F90685698B
:101024001309F00FB3069900B3742B01B694134956
:10103400F9FFB3749900856B33796901416B938728
:10104400F9FFB3F7270199E363FC340193D949000D
:10105400C147E3E637FF99BF0569C1697D19D9B76F
:101064001305800D63886901130500026384790107
:1010740013051008CA85DD3B353D21DD4E99B38447
:101084003441D9B7DA852D45D533CA94E30099F2B2
:1010940005097D3BA30FA9FED5BF9387F9FF93F7FD
:1010A400F70F6361FC0C83C71C0413073008631F2C
:1010B400F70437070800636BEB04B3079B00B7061C
:1010C400100063F5D704334BEB0089476393F906AB
:1010D4008980D549E38C04ECDA850945413B110943
:1010E4000327C9FF91472320E48003076480E34E6C
:1010F40007FE23033481FD17EDFBFD14110B81C49E
:101104009377FB0FE9FF7D3371F5E1B5B717004025
:1011140003C75704B70708001377070219E3B78713
:1011240007007955E378FBEA33079B00E3FFE7F810
:1011340055B58547E382F9F2DA852D45053B938958
:10114400F4FFE38504E6293393F7390091EB832612
:1011540004800327090093074900E39AE6E43E89E3
:10116400CE84F1BFB5476396F9001305900BC931DE
:1011740035BDB1471305B00AE38BF9FE9947639176
:10118400F904B7050800B365BB002D45C53181449A
:101194008D4BA149753963967401832704802320FC
:1011A400F9008504E39834FF8327048013172B0187
:1011B400635507002312F900D5BB2322F900FDB3C0
:1011C4009D476399F90281451305B0044531BD4437
:1011D4002320090023220900FD599D3993F7740047
:1011E400CA9703C70700FD14398D2380A700E3962F
:1011F40034FF6DBBA1476392F9046D398144630DDB
:101204000B008D479304C0036308FB00930400059F
:1012140063048B01930440041375C507E30895D850
:101224001945393139390545213126850D390945A5
:101234003D314931E31C05D669BB91476399F900F7
:1012440013056006F536F53E130590090DB7E38FD7
:0812540009D4F154A9BB00000C
:10125C009711002093814180173100201301C1D9CF
:10126C001305400097F5FF1F938545D917060020FD
:10127C00130646FE63FAC5008322050023A0550021
:10128C0011059105E3EAC5FE17150000130545137A
:10129C0097050020938505FC1386C18063FAC50071
:1012AC008322050023A0550011059105E3EAC5FE34
:1012BC001385C1809385C1AF6377B50023200500EA
:1012CC001105E36DB5FEFD42739002BC8D42739027
:1012DC0042808962938282887390023097F2FF1F5A
:1012EC009382C2D193E23200739052303717004090
:1012FC00930770052300F704930780FA2300F70483
:10130C000F1000003C47B70600FAE116F58FB70640
:10131C0000069506D58F3CC797120000938282EB8E
:10132C008292970200209382229D73901234730054
:10133C0020300000130101FE232E81001304010252
:10134C002326A4FE8327C4FE93F7F701130710008E
:10135C00B316F70037E700E08327C4FE93D7570096
:10136C009387070493972700B307F70023A0D700B0
:10137C00130000000324C101130101026780000067
:10138C00130101FE232E8100130401022326A4FE67
:10139C008327C4FE93F7F70113071000B316F70069
:1013AC0037E700E08327C4FE93D7570093870706DF
:1013BC0093972700B307F70023A0D7001300000072
:1013CC0013000000130000000324C10113010102EB
:1013DC0067800000130101FE232E8100130401021B
:1013EC002326A4FE8327C4FE93F7F70113071000EE
:1013FC00B316F70037E700E08327C4FE93D75700F6
:10140C009387070693972700B307F70023A0D7000D
:10141C001300000013000000130000000324C1019E
:10142C001301010267800000130101FA232E11043D
:10143C00232C5104232A61042328710423268104BC
:10144C002324A1042322B1042320C104232ED1027E
:10145C00232CE102232AF102232801032326110362
:10146C002324C1032322D1032320E103232EF101E2
:10147C0013040106A30704FAB7870040938767009B
:10148C0083C707002307F4FAB787004093876700E8
:10149C0083C7070093F7F70F93D7170093F717003D
:1014AC0093F7F70FE3840712B78700409387670021
:1014BC0083C7070093F7F70F93D7770093F7F70FCE
:1014CC006392073AB78700409387770083C707007A
:1014DC0093F7F70F93F7F703130730026364F736AC
:1014EC0013972700B72700009387C72EB307F70081
:1014FC0083A707006780070083C7118363840702F3
:10150C00B78700409387C70223800700B787004046
:10151C009387E70203C707001377C7FF2380E70011
:10152C006F000033B78700409387E70203C70700BB
:10153C001377C7FF136727002380E7006F00403144
:10154C0023A20182B78700409387770083C70700E7
:10155C0093F7F70F93D7670093F7170093F7F70FED
:10156C006386072EB78700409387A70203C707003F
:10157C00137737FF136787002380E700B787004096
:10158C009387870083C7070013F7F70F238CE1AE0F
:10159C0003C781AF930720006312F702938741932F
:1015AC0003C707002384E1829387419303C7170085
:1015BC0093878182A380E7006F00C001138741935A
:1015CC0023A6E18283C781AF1385070097F0FF1F25
:1015DC00E78080DFB78700409387A70203C7070027
:1015EC00137737FF2380E7006F004026B787004052
:1015FC009387670203C707001377C7FF136727009A
:10160C002380E7006F00C02483C751AF130750003D
:10161C006380E714130760006398E71AB7870040EC
:10162C009387270203C707001377C7FF13672700A9
:10163C002380E70083D781819396070193D6060117
:10164C00130700046374D7009307000493970701F2
:10165C0093D7070113F7F70F238CE1AE83C7A18152
:10166C0013870700B7170020938747293307F70024
:10167C0083C781AF1386070093050700B7170020B7
:10168C001385472997F0FF1FE780003403D781812A
:10169C0083C781AF9397070193D70701B307F7402F
:1016AC001397070113570701239CE18003C7A181FE
:1016BC0083C781AFB307F70013F7F70F238DE180D2
:1016CC00B78700409387070203C781AF2380E700E9
:1016DC0083C781AF63840706B787004093872702CF
:1016EC0003C707001377C7FF2380E700B7870040C5
:1016FC009387270283C7070093F7F70F93D76700E9
:10170C0093F7170013F7F70FB7870040938727025B
:10171C00134717001377F70F13771700131667008B
:10172C0003C707001377F7FB9306070013070600A0
:10173C0033E7E6002380E7006F00000BB78700401B
:10174C0093872702130720FC2380E7006F00C00952
:10175C00B71700209387472983C7270093F7F7070C
:10176C0013F7F70FA38DE18003C7B181B787004052
:10177C00938737001377F7071377F70F1376F7076D
:10178C0003C70700137707F8930607001307060033
:10179C0033E7E6002380E700B787004093872702F2
:1017AC0003C70700137737FF2380E700B787004094
:1017BC009387270203C707001377C7FF1367270018
:1017CC002380E7006F004002B78700409387070231
:1017DC0023800700B787004093872702130720FC5C
:1017EC002380E700130000006F00800603C751AF91
:1017FC0093070002631EF70213067000B717002050
:10180C00938547291385C18097F0FF1FE780C01B84
:10181C00B78700409387070223800700B7870040F3
:10182C0093872702130780FC2380E7006F00400298
:10183C00B7870040938727021307A0FC2380E7009B
:10184C006F000001130000006F0080001300000007
:10185C00B78700409387670003C70700136727000B
:10186C002380E700B78700409387770083C7070082
:10187C0093F7F70F93D7770093F7F70F638C075213
:10188C00B71700209387472903C70700238AE1AEC7
:10189C00B71700209387472903C71700A38AE1AE27
:1018AC00B71700209387472903C73700238BE1AE76
:1018BC00B71700209387472903C7670083C77700B2
:1018CC0093978700B3E7E7002316F4FAB787004035
:1018DC00938727021307A0FC2380E70083C741AF3F
:1018EC0093F70706639C073C83C751AF1307B000FF
:1018FC006362F73A13972700B72700009387C7371F
:10190C00B307F70083A707006780070083C761AFA1
:10191C00130730006380E716130730006342F72883
:10192C00130710006388E70013072000638EE70499
:10193C006F000027238D0180239C01808357C4FAFC
:10194C009396070193D60601130720016374D70001
:10195C00930720019397070193D7070113F7F70F0C
:10196C00238CE1AE83C781AF13860700B727000035
:10197C0093854724B71700201385472997F0FF1F3D
:10198C00E78080046F008022238D0180B727000040
:10199C009387072E03A707002320E4FA03A7470029
:1019AC002322E4FA83C787002304F4FA930704FA8A
:1019BC001306900093850700B7170020138547295D
:1019CC0097F0FF1FE780400013062004B7270000A4
:1019DC0093858725B71700201385D72997F0FF1F0C
:1019EC00E78080FE8357C4FA9396070193D60601CD
:1019FC001307B0046374D7009307B00493970701DF
:101A0C0093D7070113F7F70F238CE1AE83C781AF90
:101A1C0093F6F70F130700046374D70093070004C1
:101A2C0013F7F70F238CE1AE0357C4FA930790001A
:101A3C006316F700239C01806F00401703C7A18138
:101A4C0083C781AFB307F70013F7F70F238DE1803E
:101A5C0083C781AF9397070193D707011307B0048E
:101A6C00B307F7401397070113570701239CE18035
:101A7C006F00C013238D0180239C0180B7170020B9
:101A8C009387472983C72700130730006384E70C2B
:101A9C0013073000634AF71013072000638EE70624
:101AAC00130720006342F710638807001307100028
:101ABC006386E7026F00400F13074000238CE1AEF2
:101ACC001306400093858180B717002013854729A2
:101ADC0097F0FF1FE78040EF6F00400C9307400129
:101AEC0013860700B72700009385C729B717002076
:101AFC001385472997F0FF1FE78000ED93074001FE
:101B0C000357C4FA6354F7009307070013F7F70F52
:101B1C00238CE1AE6F0080089307C0011386070089
:101B2C00B72700009385072BB7170020138547298B
:101B3C0097F0FF1FE78040E99307C0010357C4FAF1
:101B4C006354F7009307070013F7F70F238CE1AEEC
:101B5C006F00C00413062001B72700009385C72C23
:101B6C00B71700201385472997F0FF1FE780C0E5C2
:101B7C008357C4FA9396070193D6060113072001E5
:101B8C006374D700930720019397070193D707013C
:101B9C0013F7F70F238CE1AE130000006F00C000A9
:101BAC00130000006F00000F130000006F00800E88
:101BBC0083C7418113F7F70FB71700209387472985
:101BCC002380E70013071000238CE1AE6F00800C1C
:101BDC0083C741AF93F73700639E070097E0FF1F61
:101BEC00E780C072B71700209387472903C72700E7
:101BFC00238AE180238C01AE6F00C009B717002047
:101C0C0083C7072693F7F70F93F7D7FF13F7F70F51
:101C1C00B71700202380E726238C01AE6F008007C6
:101C2C00B717002083C7072693F7F70F93E7270012
:101C3C0013F7F70FB71700202380E726238C01AE8C
:101C4C006F004005B717002083C7072613F7F70F5F
:101C5C00B7170020938747292380E700B717002088
:101C6C0093874729A380070013072000238CE1AE3C
:101C7C006F004002B71700209387472983C72700BE
:101C8C0093F7F70713F7F70FA38DE180238C01AEC1
:101C9C0013000000B78700409387070203C781AF8A
:101CAC002380E700B78700409387270203C707000C
:101CBC001377C7FF2380E7006F00C00F83C741AFC6
:101CCC0013F70706930700026316F70E03C741AF1D
:101CDC009307100A6316F70403C751AF930710025A
:101CEC00631AF70C130670009385C180B717002098
:101CFC001385472997F0FF1FE78000CDB787004079
:101D0C0093870702130770002380E700B787004012
:101D1C0093872702130780FC2380E7006F0080095C
:101D2C0003C741AF930710026316F70803C751AFFF
:101D3C00930730026312F702B787004093870702BC
:101D4C0023800700B787004093872702130780FC86
:101D5C002380E7006F00000603C751AF9307000212
:101D6C00631CF700B787004093872702130720FCFA
:101D7C002380E7006F00000403C751AF93072002D4
:101D8C00631AF702B71700209387472903C7270068
:101D9C009387C180A383E700B7870040938707022E
:101DAC0023800700B787004093872702130780FC26
:101DBC002380E700B78700409387670003C70700BD
:101DCC00136727002380E7006F00400CB7870040A3
:101DDC009387670083C7070093F7170093F7F70FF4
:101DEC0063820706B787004093873700238007007C
:101DFC00B787004093872702130720002380E70052
:101E0C00B787004093876702130720012380E70000
:101E1C00B78700409387A702130720012380E700B0
:101E2C00B78700409387E702130720012380E70060
:101E3C00B787004003C76700136717002383E700C9
:101E4C006F00C004B78700409387670083C7070003
:101E5C0093F7F70F93D7270093F7170093F7F70F24
:101E6C00638E0700B78700409387670003C707009E
:101E7C00136747002380E7006F004001B7870040DD
:101E8C00938767000347E4FA2380E7001300000000
:101E9C008320C1058322810503234105832301058A
:101EAC000324C10403258104832541040326010472
:101EBC008326C103032781038327410303280103DE
:101ECC008328C102032E8102832E4102032F0102BB
:101EDC00832FC1011301010673002030130101FE91
:101EEC00232E1100232C8100130401022326A4FEAF
:101EFC002324B4FE0327C4FE93071000631EF700CF
:101F0C00032784FEB70701009387F7FF6316F700DA
:101F1C0013850183EF00C029130000008320C10149
:101F2C00032481011301010267800000130101FFEA
:101F3C00232611002324810013040101B70701009B
:101F4C009385F7FF13051000EFF05FF98320C100B4
:101F5C00032481001301010167800000130101FEBD
:101F6C00232E8100130401022326A4FEB717004080
:101F7C009387470B83C7170013F7F70FB71700406A
:101F8C009387470B1377D7FF1377F70FA380E700DF
:101F9C00B71700409387070A83C7170013F7F70F8B
:101FAC00B71700409387070A136727001377F70FBB
:101FBC00A380E700B71700409387870A83C71700F1
:101FCC0013F7F70FB71700409387870A136727009B
:101FDC001377F70FA380E700B71700409387470BE1
:101FEC0083C7170013F7F70FB71700409387470BFA
:101FFC001377E7FF1377F70FA380E700B7170040BD
:10200C009387070B83C7170013F7F70FB717004019
:10201C009387070B136717001377F70FA380E7005D
:10202C00B71700409387070A83C7170013F7F70FFA
:10203C00B71700409387070A1377E7FF1377F70F5B
:10204C00A380E700B73700409387074013071004BD
:10205C002396E700B737004093870740130710001B
:10206C002387E700B73700409387074003C7270053
:10207C00136747002381E700B73700409387074079
:10208C0003C72700136717002381E700B737004009
:10209C009387074003C7370013673700A381E70016
:1020AC00B73700409387074003C737001377F7FC17
:1020BC00A381E700B73700409387074003C7370079
:1020CC00137777FFA381E700B7370040938707406A
:1020DC0003C737001377B7FFA381E700B73700407A
:1020EC009387074003C7170013670704A380E70013
:1020FC00B73700409387074003C707001367870073
:10210C002380E700130000000324C1011301010226
:10211C0067800000130101FD2326810213040103D3
:10212C00232EA4FC232CB4FC232AC4FC832744FDBB
:10213C002326F4FE8327C4FE63820706B7370040CC
:10214C009387B74083C7070013F7F70F9307700007
:10215C0063EAE7008327C4FE638607009307100039
:10216C006F00800093070000E38607FCB737004040
:10217C0093878740032784FD034707002380E700EC
:10218C008327C4FE9387F7FF2326F4FE832784FD61
:10219C0093871700232CF4FC6FF05FFA832744FD20
:1021AC00138507000324C10213010103678000009B
:1021BC00130101FE232E8100130401022326A4FE29
:1021CC00130000000324C101130101026780000009
:1021DC00411122C426C2170400001304241E9704C4
:1021EC0000009384A41D818C4AC006C689840149D1
:1021FC0063159902170400001304441C9704000093
:10220C009384041C818C89840149631D9900B2401C
:10221C00224492440249410182801C400509110468
:10222C008297F9B71C40050911048297F9BF000089
:10223C00426F6F740D0A000012011001EF02014091
:10224C00861A40800001010203010000080B000205
:10225C000202000009040000010202000005240033
:10226C0010010524010101042402060524060001C5
:10227C000705810308001009040100020A00000090
:10228C000705020240000007058302400000000021
:10229C001403430048003500380078002000440047
:1022AC00650076001C0355005300420020004400DA
:1022BC0065007600200042006F006100720064002F
:1022CC0012034300480035003800780043004400F6
:1022DC004300000009024B00020100A0FA000000BC
:1022EC00F8170000501800004C15000050180000A2
:1022FC005018000050180000501800005018000032
:10230C005018000050180000501800005018000021
:10231C005018000050180000501800005018000011
:10232C005018000050180000501800005018000001
:10233C0050180000501800005018000050180000F1
:10234C0050180000501800005018000050180000E1
:10235C0050180000501800005018000050180000D1
:10236C0014160000F81500005018000004150000A9
:10237C00501C0000081C0000A01C00002C1C0000BD
:10238C00A01C0000801C000018190000A01C0000FC
:10239C00BC1B0000DC1B0000A01C0000A01C0000EB
:1023AC002004002000050020BC050020440700206C
:0823BC00C00700200009002009
:0423C400381F0000BE
:1023C8000000000080000000000000000403090471
:00000001FF
